:020000040800F2
:10000000FF4F002099010008E1010008E10100080C
:10001000E1010008E1010008E10100080000000022
:10002000000000000000000000000000E1010008E6
:10003000E101000800000000E1010008E101000802
:10004000E1010008E1010008E1010008E101000808
:10005000E1010008E1010008E1010008E1010008F8
:10006000E1010008E1010008E1010008E1010008E8
:10007000E1010008E1010008E1010008E1010008D8
:10008000E1010008E1010008E1010008E1010008C8
:10009000E1010008E1010008E1010008E1010008B8
:1000A000E1010008E1010008E1010008E1010008A8
:1000B000E1010008E1010008E1010008E101000898
:1000C000E1010008E1010008E1010008E101000888
:1000D000E1010008E1010008E1010008E101000878
:1000E000E1010008E1010008E10100080000000052
:1000F0000000000000000000000000000000000000
:0C01000000000000000000005FF808F1A3
:10010C000348044B834202D0034B03B1184770479A
:10011C000C0000200C000020000000000548064BDD
:10012C001B1AD90F01EBA301491002D0034B03B1E9
:10013C00184770470C0000200C0000200000000045
:10014C0010B5064C237843B9FFF7DAFF044B13B113
:10015C000448AFF300800123237010BD0C00002075
:10016C0000000000B00A000808B5054B1BB105499A
:10017C000548AFF30080BDE80840FFF7CFBF00BFD4
:10018C000000000010000020B00A000800F023F866
:10019C000B480C490C4A002302E0D458C4500433D9
:1001AC00C4188C42F9D3094A094C002301E01360AE
:1001BC000432A242FBD300F051FC00F0F3FB704779
:1001CC00000000200C000020F40A00080C000020A5
:1001DC002C000020FEE770477047000038B50E4B2E
:1001EC0005461A784FF47A73B3FBF2F30B4A106896
:1001FC00B0FBF3F000F080F8044658B90F2D09D885
:10020C00024629464FF0FF3000F048F82046044BD8
:10021C001D6038BD0120FCE7040000200000002018
:10022C0008000020074A08B51368032043F01003A8
:10023C00136000F021F80F20FFF7D0FFFFF7CCFF81
:10024C00002008BD00200240014B1868704700BF19
:10025C002800002038B50446FFF7F6FF0546631C5E
:10026C001EBF044B1B78E418FFF7EEFF401BA042A7
:10027C00FAD338BD0400002007490302CA6803F40E
:10028C00E06322F4E0621204120C134343F0BF63E8
:10029C0043F40033CB60704700ED00E0144B30B5F5
:1002AC00DB684FF0FF34C3F30223DD1E042D86BF41
:1002BC0004230025C3F1070304FA03F321EA030125
:1002CC00AC40002822EA040201FA05F141EA0201DD
:1002DC00ACBF00F16040074A4FEA0113ABBF00F519
:1002EC00614000F00F0080F80033135430BD00BFA4
:1002FC0000ED00E014ED00E00138B0F1807F0BD28E
:10030C004FF0E023F021054A586182F823100020B9
:10031C00072298611A6170470120704700ED00E0D8
:10032C002DE9F74F00244FF0010826464FF00F0E31
:10033C00DFF880C1604B0A6832FA06F502D103B0CF
:10034C00BDE8F08F08FA06F702EA070537EA020261
:10035C0078D14A68032A07D8013A022A00F285802C
:10036C00DFE802F093989E00122A00F096806BD87A
:10037C00112A00F08C80FF2D93BF0746A6F10809C7
:10038C00071D4FEA860988BF4FEA89093A680EFAB9
:10039C0009FA22EA0A0204FA09F942EA09023A6065
:1003AC00D1F8049019F0805F4CD0DCF8182026F0BE
:1003BC00030742F00102CCF81820DCF8182007F1F2
:1003CC00804702F00102019207F5803706F0030A1C
:1003DC00019A4FEA8A0ABA680EFA0AFB22EA0B0B58
:1003EC00364A904260D002F5806290425ED002F5AF
:1003FC00806290425CD002F58062904214BF04226D
:10040C00032202FA0AF242EA0B02BA609A6819F461
:10041C00801F14BF2A43AA439A60DA6819F4001F9C
:10042C0014BF2A43AA43DA605A6819F4003F14BF78
:10043C002A43AA435A601A6819F4803F14BF2A430E
:10044C00AA431A60013676E7DFF874904A450CD05F
:10045C0014D8A9F580194A4507D009F570294A45E1
:10046C0003D0A9F580194A4585D18A68D2B1012AF1
:10047C004FF008040CBF076147617CE7DFF844903C
:10048C004A45F2D009F58039EDE7CC6873E7CC68C2
:10049C00043470E7CC6808346DE7CC680C346AE738
:1004AC00002468E7042466E70022AAE70122A8E7F3
:1004BC000222A6E70010024000040140000801409F
:1004CC0000002210000031100AB1016170470904CC
:1004DC00FBE7C36801EA030221EA030141EA024196
:1004EC00016170472DE9F341054638B30368DB071A
:1004FC0010D42B689F075ED42B68190700F19580E8
:10050C002B685A0700F1C180EB69002B40F02E815B
:10051C00002029E0914C636803F00C03042B07D0F6
:10052C00636803F00C03082B0AD16368DE0307D55C
:10053C0023689C03DDD56B68002BDAD1012013E016
:10054C006B68B3F5803F12D1236843F4803323608A
:10055C00FFF77AFE064623689803CAD4FFF774FEA9
:10056C00801B6428F7D9032002B0BDE8F0819BB949
:10057C00236823F480332360236823F480232360CF
:10058C00FFF762FE064623689903B2D5FFF75CFEBF
:10059C00801B6428F7D9E6E7B3F5A02F236803D1B5
:1005AC0043F480232360CFE723F480332360236854
:1005BC0023F48023CBE7694C636813F00C0F07D04E
:1005CC00636803F00C03082B10D16368DA030DD4B5
:1005DC0023689B0702D52B69012BAFD123686A696D
:1005EC0023F0F80343EAC203236085E72A695C4BD6
:1005FC006AB101221A60FFF727FE064623689F079F
:10060C00ECD4FFF721FE801B0228F7D9ABE71A6068
:10061C00FFF71AFE0646236898077FF56DAFFFF7C4
:10062C0013FE801B0228F6D99DE7AA694B4C4C4B54
:10063C00E2B10122C3F88024FFF706FE0646636A86
:10064C009B070DD54FF4FA52464B1B68B3FBF2F3E4
:10065C00019300BF019B5A1E0192002BF9D14FE769
:10066C00FFF7F2FD801B0228E9D97CE7C3F8802450
:10067C00FFF7EAFD0646636A9F077FF541AFFFF778
:10068C00E3FD801B0228F6D96DE7344CE369D800F2
:10069C0024D40127E36943F08053E361E36903F059
:1006AC0080530093009B304E3368D90518D5EB6806
:1006BC00012B26D1236A43F001032362FFF7C4FD0B
:1006CC0041F288368046236A9B0740D5002F3FF4C1
:1006DC001BAFE36923F08053E36115E70027E2E7E2
:1006EC00336843F480733360FFF7AEFD80463368A4
:1006FC00DA05DCD4FFF7A8FDA0EB08006428F6D9D6
:10070C0031E7B3B9236A41F2883623F0010323623F
:10071C00236A23F004032362FFF796FD8046236AC5
:10072C009807D3D5FFF790FDA0EB0800B042F6D99F
:10073C0019E7052B236A03D143F004032362B9E7BD
:10074C0023F001032362236A23F00403B5E7FFF7C8
:10075C007BFDA0EB0800B042B5D904E700100240C5
:10076C000000424200000020007000402A4C6268E9
:10077C0002F00C02082A3ED00022022B274B1A66EC
:10078C002CD1FFF761FD06462368990120D42B6A12
:10079C00B3F5803F05D16268A96822F400320A43A0
:1007AC006260696A62680B4322F47412134301227B
:1007BC0063601A4B1A66FFF747FD054623689A01DA
:1007CC003FF5A6AEFFF740FD401B0228F6D9CAE65E
:1007DC00FFF73AFD801B0228D6D9C4E6FFF734FD9B
:1007EC00054623689B017FF593AEFFF72DFD401B5B
:1007FC000228F6D9B7E6012B3FF4A0AE60682B6A4D
:10080C0000F480329A427FF499AE6B6A00F4701057
:10081C00C01A18BF0120A7E6001002400000424297
:10082C000D4A536803F00C01082912D10B48C3F38D
:10083C008341DB03405C09D55368094AC3F3404349
:10084C005043084AD35CB0FBF3F07047064B584357
:10085C0070470348704700BF00100240DA0A0008D6
:10086C0000127A00D80A000800093D002DE9F04179
:10087C0004460D4610B90120BDE8F081444A1368C6
:10088C0003F007038B4228D321688E0730D4CA07A4
:10089C0043D43F4A136803F00703AB4265D8226880
:1008AC003C4D12F0040F6CD1130706D56B6822690E
:1008BC0023F4605343EAC2036B60FFF7B1FF6B682C
:1008CC00354AC3F30313D35CD840344B1860344B14
:1008DC001868FFF783FC0020CEE7136823F00703AA
:1008EC000B431360136803F007038B42C3D1CBE7B0
:1008FC00284B11F0040F1EBF5A6842F4E0625A6094
:10090C00080742BF5A6842F460525A605A68A0689D
:10091C0022F0F00202435A60B9E762681D4E012AC8
:10092C0033681AD113F4003FA5D0736841F28838AC
:10093C0023F0030313437360FFF786FC07467368C9
:10094C00626803F00C03B3EB820FA2D0FFF77CFCC0
:10095C00C01B4045F3D903208EE7022A02D113F0C5
:10096C00007FE1E713F0020FDEE7136823F00703C3
:10097C002B431360136803F00703AB427FF47BAF88
:10098C008DE76B68E16823F4E0630B436B608BE7E6
:10099C000020024000100240C80A0008000000209D
:1009AC000800002000B591B0FFF73CFC1422002198
:1009BC0008A800F04BF81422002101A800F046F81A
:1009CC0001244FF480330225CDE90643CDE90D53C4
:1009DC004FF4E01306A80F93FFF784FD00B1FEE778
:1009EC000F23CDE901354FF480630390CDE904303A
:1009FC00294601A8FFF73AFF00B1FEE74FF4005675
:100A0C00104B11489A6906A942F010029A619B6931
:100A1C00CDE9066403F010030193CDE90845019B71
:100A2C00FFF77EFC224631460748FFF74DFD4FF499
:100A3C0000510548FFF74DFD4FF4FA70FFF70AFC23
:100A4C00F5E700BF001002400010014003460244CD
:100A5C00934200D1704703F8011BF9E770B50026EB
:100A6C000C4C0D4B1D1BB6EBA50F09D1002600F04D
:100A7C0019F80A4C0A4B1D1BB6EBA50F05D170BD1E
:100A8C0054F8043B98470136EDE754F8043B98477B
:100A9C000136F1E7EC0A0008EC0A0008EC0A000841
:100AAC00F00A0008F8B500BFF8BC08BC9E467047B9
:0C0ABC00F8B500BFF8BC08BC9E467047AF
:100AC80000000000000000000102030406070809F6
:100AD800010202030405060708090A0B0C0D0E0F94
:040AE80010100000EA
:040AEC007501000888
:040AF0004D010008AC
:0C0AF40000127A00010000001000000059
:040000050800019955
:00000001FF
