:020000040800F2
:10000000FF4F0020D50A0008351C0008371C0008E7
:10001000391C00083B1C00083D1C000800000000C3
:100020000000000000000000000000003F1C00086D
:10003000411C000800000000431C0008451C00088B
:100040001D0B00081D0B00081D0B00081D0B0008F0
:100050001D0B00081D0B00081D0B00081D0B0008E0
:100060001D0B0008C91D00081D0B00081D0B000812
:100070001D0B00081D0B00081D0B00081D0B0008C0
:100080001D0B00081D0B00081D0B00081D0B0008B0
:100090001D0B00081D0B00081D0B00081D0B0008A0
:1000A0001D0B00081D0B00081D0B00081D0B000890
:1000B0001D0B00081D0B00081D0B00081D0B000880
:1000C0001D0B00081D0B00081D0B00081D0B000870
:1000D0001D0B00081D0B00082D1F00081D0B00083C
:1000E000D11C00081D0B00081D0B000800000000BB
:1000F0000000000000000000000000000000000000
:0C01000000000000000000005FF808F1A3
:10011000034613F8012B002AFBD1181A0138704747
:1001200081F0004102E000BF83F0004330B54FEAA8
:1001300041044FEA430594EA050F08BF90EA020F15
:100140001FBF54EA000C55EA020C7FEA645C7FEAA8
:10015000655C00F0E2804FEA5454D4EB5555B8BFCB
:100160006D420CDD2C4480EA020281EA030382EA3C
:10017000000083EA010180EA020281EA0303362DCE
:1001800088BF30BD11F0004F4FEA01314FF4801CA1
:100190004CEA113102D0404261EB410113F0004FB3
:1001A0004FEA03334CEA133302D0524263EB43036A
:1001B00094EA050F00F0A780A4F10104D5F1200E08
:1001C0000DDB02FA0EFC22FA05F2801841F1000163
:1001D00003FA0EF2801843FA05F359410EE0A5F137
:1001E00020050EF1200E012A03FA0EFC28BF4CF068
:1001F000020C43FA05F3C01851EBE37101F000451E
:1002000007D54FF0000EDCF1000C7EEB00006EEB2A
:100210000101B1F5801F1BD3B1F5001F0CD34908B4
:100220005FEA30004FEA3C0C04F101044FEA44520B
:1002300012F5800F80F09A80BCF1004F08BF5FEA92
:10024000500C50F1000041EB045141EA050130BD72
:100250005FEA4C0C404141EB0101013C28BFB1F584
:10026000801FE9D291F0000F04BF01460020B1FACF
:1002700081F308BF2033A3F10B03B3F120020CDAA2
:100280000C3208DD02F1140CC2F10C0201FA0CF080
:1002900021FA02F10CE002F11402D8BFC2F1200CE5
:1002A00001FA02F120FA0CFCDCBF41EA0C0190409B
:1002B000E41AA2BF01EB0451294330BD6FEA0404E4
:1002C0001F3C1CDA0C340EDC04F11404C4F12002CF
:1002D00020FA04F001FA02F340EA030021FA04F3E1
:1002E00045EA030130BDC4F10C04C4F1200220FA38
:1002F00002F001FA04F340EA0300294630BD21FA76
:1003000004F0294630BD94F0000F83F4801306BF3B
:1003100081F480110134013D4EE77FEA645C18BF2F
:100320007FEA655C29D094EA050F08BF90EA020FC6
:1003300005D054EA000C04BF1946104630BD91EABE
:10034000030F1EBF0021002030BD5FEA545C05D1C1
:100350004000494128BF41F0004130BD14F5800400
:100360003CBF01F5801130BD01F0004545F0FE4174
:1003700041F470014FF0000030BD7FEA645C1ABFA9
:10038000194610467FEA655C1CBF0B46024650EAE0
:10039000013406BF52EA033591EA030F41F400210C
:1003A00030BD00BF90F0000F04BF0021704730B592
:1003B0004FF4806404F132044FF000054FF0000167
:1003C00050E700BF90F0000F04BF0021704730B528
:1003D0004FF4806404F1320410F0004548BF4042FD
:1003E0004FF000013EE700BF42004FEAE2014FEA52
:1003F00031014FEA02701FBF12F07F4393F07F4F2D
:1004000081F06051704732F07F4208BF704793F02F
:100410007F4F04BF41F40021704730B54FF4607442
:1004200001F0004521F000411CE700BF50EA010245
:1004300008BF704730B54FF000050AE050EA0102EE
:1004400008BF704730B511F0004502D5404261EB5E
:1004500041014FF4806404F132045FEA915C3FF49F
:10046000D8AE4FF003025FEADC0C18BF03325FEA3C
:10047000DC0C18BF033202EBDC02C2F1200300FAED
:1004800003FC20FA02F001FA03FE40EA0E0021FA12
:1004900002F11444BDE600BF70B54FF0FF0C4CF400
:1004A000E06C1CEA11541DBF1CEA135594EA0C0FB2
:1004B00095EA0C0F00F0DEF82C4481EA030621EAED
:1004C0004C5123EA4C5350EA013518BF52EA033528
:1004D00041F4801143F4801338D0A0FB02CE4FF0DA
:1004E0000005E1FB02E506F00042E0FB03E54FF00A
:1004F0000006E1FB03569CF0000F18BF4EF0010E02
:10050000A4F1FF04B6F5007F64F5407404D25FEAFD
:100510004E0E6D4146EB060642EAC62141EA5551B0
:100520004FEAC52040EA5E504FEACE2EB4F1FD0CF2
:1005300088BFBCF5E06F1ED8BEF1004F08BF5FEA70
:10054000500E50F1000041EB045170BD06F0004622
:1005500046EA010140EA020081EA0301B4EB5C04CF
:10056000C2BFD4EB0C0541EA045170BD41F48011C7
:100570004FF0000E013C00F3AB8014F1360FDEBFEC
:10058000002001F0004170BDC4F10004203C35DAC8
:100590000C341BDC04F11404C4F1200500FA05F34B
:1005A00020FA04F001FA05F240EA020001F00042EC
:1005B00021F0004110EBD37021FA04F642EB060162
:1005C0005EEA430E08BF20EAD37070BDC4F10C048C
:1005D000C4F1200500FA04F320FA05F001FA04F250
:1005E00040EA020001F0004110EBD37041F100013C
:1005F0005EEA430E08BF20EAD37070BDC4F1200547
:1006000000FA05F24EEA020E20FA04F301FA05F2AE
:1006100043EA020321FA04F001F0004121FA04F256
:1006200020EA020000EBD3705EEA430E08BF20EA26
:10063000D37070BD94F0000F0FD101F00046400060
:1006400041EB010111F4801F08BF013CF7D041EAE2
:10065000060195F0000F18BF704703F000465200E6
:1006600043EB030313F4801F08BF013DF7D043EAB7
:100670000603704794EA0C0F0CEA135518BF95EA6D
:100680000C0F0CD050EA410618BF52EA4306D1D1F4
:1006900081EA030101F000414FF0000070BD50EA13
:1006A000410606BF1046194652EA430619D094EA9D
:1006B0000C0F02D150EA013613D195EA0C0F05D187
:1006C00052EA03361CBF104619460AD181EA0301DB
:1006D00001F0004141F0FE4141F470014FF0000093
:1006E00070BD41F0FE4141F4780170BD70B54FF02E
:1006F000FF0C4CF4E06C1CEA11541DBF1CEA1355AE
:1007000094EA0C0F95EA0C0F00F0A7F8A4EB05048F
:1007100081EA030E52EA03354FEA013100F0888086
:100720004FEA03334FF0805545EA131343EA12634F
:100730004FEA022245EA111545EA10654FEA002604
:100740000EF000419D4208BF964244F1FD0404F5BD
:10075000407402D25B084FEA3202B61A65EB030519
:100760005B084FEA32024FF480104FF4002CB6EBD6
:10077000020E75EB030E22BFB61A754640EA0C0056
:100780005B084FEA3202B6EB020E75EB030E22BF96
:10079000B61A754640EA5C005B084FEA3202B6EBD7
:1007A000020E75EB030E22BFB61A754640EA9C0096
:1007B0005B084FEA3202B6EB020E75EB030E22BF66
:1007C000B61A754640EADC0055EA060E18D04FEA24
:1007D000051545EA16754FEA06164FEAC30343EAC4
:1007E00052734FEAC2025FEA1C1CC0D111F4801F91
:1007F0000BD141EA00014FF000004FF0004CB6E78A
:1008000011F4801F04BF01430020B4F1FD0C88BF28
:10081000BCF5E06F3FF6AFAEB5EB030C04BFB6EB33
:10082000020C5FEA500C50F1000041EB045170BD26
:100830000EF0004E4EEA113114EB5C04C2BFD4EB53
:100840000C0541EA045170BD41F480114FF0000ED7
:10085000013C90E645EA060E8DE60CEA135594EA53
:100860000C0F08BF95EA0C0F3FF43BAF94EA0C0F56
:100870000AD150EA01347FF434AF95EA0C0F7FF4CB
:1008800025AF104619462CE795EA0C0F06D152EA1F
:1008900003353FF4FDAE1046194622E750EA410603
:1008A00018BF52EA43067FF4C5AE50EA41047FF414
:1008B0000DAF52EA43057FF4EBAE12E74FF0FF3C79
:1008C00006E000BF4FF0010C02E000BF4FF0010C4A
:1008D0004DF804CD4FEA410C7FEA6C5C4FEA430CC3
:1008E00018BF7FEA6C5C1BD001B050EA410C0CBF12
:1008F00052EA430C91EA030F02BF90EA020F002074
:10090000704710F1000F91EA030F58BF994208BFDA
:1009100090422CBFD8176FEAE37040F00100704797
:100920004FEA410C7FEA6C5C02D150EA013C07D1EE
:100930004FEA430C7FEA6C5CD6D152EA033CD3D039
:100940005DF8040B704700BF8446104662468C4633
:100950001946634600E000BF01B5FFF7B7FF002866
:1009600048BF10F1000F01BD4DF808EDFFF7F4FF8F
:100970000CBF012000205DF808FB00BF4DF808ED1A
:10098000FFF7EAFF34BF012000205DF808FB00BF3D
:100990004DF808EDFFF7E0FF94BF012000205DF85F
:1009A00008FB00BF4DF808EDFFF7CEFF94BF012014
:1009B00000205DF808FB00BF4DF808EDFFF7C4FF0D
:1009C00034BF012000205DF808FB00BF4FEA410C56
:1009D0007FEA6C5C02D150EA013C0AD14FEA430C39
:1009E0007FEA6C5C02D152EA033C02D14FF0000076
:1009F00070474FF0010070474FEA410212F50012B4
:100A000015D211D56FF47873B3EB625212D94FEA55
:100A1000C12343F0004343EA505311F0004F23FA3F
:100A200002F018BF404270474FF00000704750EA94
:100A3000013005D111F0004008BF6FF00040704751
:100A40004FF00000704700BF0348044B834202D0C0
:100A5000034B03B118477047D4010020D401002094
:100A6000000000000548064B1B1AD90F01EBA3013B
:100A7000491002D0034B03B118477047D40100203E
:100A8000D40100200000000010B5064C237843B9C3
:100A9000FFF7DAFF044B13B10448AFF300800123E2
:100AA000237010BDD401002000000000144A00088B
:100AB00008B5054B1BB105490548AFF30080BDE8FB
:100AC0000840FFF7CFBF00BF00000000D8010020A2
:100AD000144A000800F023F80B480C490C4A002384
:100AE00002E0D458C4500433C4188C42F9D3094AE4
:100AF000094C002301E013600432A242FBD302F050
:100B0000E3F801F033F8704700000020D401002022
:100B1000FC4D0008D401002020040020FEE77047AF
:100B20007047000038B50E4B05461A784FF47A73BB
:100B3000B3FBF2F30B4A1068B0FBF3F000F09AF845
:100B4000044658B90F2D09D8024629464FF0FF3008
:100B500000F054F82046044B1D6038BD0120FCE72E
:100B6000040000200000002008000020074A08B50B
:100B70001368032043F01003136000F02DF80F20DA
:100B8000FFF7D0FFFFF7CCFF002008BD0020024098
:100B9000034A044B11681B780B441360704700BF75
:100BA000F001002004000020014B1868704700BFCE
:100BB000F001002038B50446FFF7F6FF0546631C38
:100BC0001EBF044B1B78E418FFF7EEFF401BA0424A
:100BD000FAD338BD0400002007490302CA6803F4B1
:100BE000E06322F4E0621204120C134343F0BF638B
:100BF00043F40033CB60704700ED00E0144B30B598
:100C0000DB684FF0FF34C3F30223DD1E042D86BFE3
:100C100004230025C3F1070304FA03F321EA0301C7
:100C2000AC40002822EA040201FA05F141EA02017F
:100C3000ACBF00F16040074A4FEA0113ABBF00F5BB
:100C4000614000F00F0080F80033135430BD00BF46
:100C500000ED00E014ED00E0002807DB012341096E
:100C6000034A00F01F00834042F82130704700BF64
:100C700000E100E00138B0F1807F0BD24FF0E023BB
:100C8000F021054A586182F823100020072298615C
:100C90001A6170470120704700ED00E02DE9F74F21
:100CA00000244FF0010826464FF00F0EDFF880C1F8
:100CB000604B0A6832FA06F502D103B0BDE8F08F46
:100CC00008FA06F702EA070537EA020278D14A680D
:100CD000032A07D8013A022A00F28580DFE802F0F1
:100CE00093989E00122A00F096806BD8112A00F08B
:100CF0008C80FF2D93BF0746A6F10809071D4FEA18
:100D0000860988BF4FEA89093A680EFA09FA22EA89
:100D10000A0204FA09F942EA09023A60D1F8049099
:100D200019F0805F4CD0DCF8182026F0030742F061
:100D30000102CCF81820DCF8182007F1804702F0F7
:100D40000102019207F5803706F0030A019A4FEA83
:100D50008A0ABA680EFA0AFB22EA0B0B364A90425C
:100D600060D002F5806290425ED002F580629042CF
:100D70005CD002F58062904214BF0422032202FA82
:100D80000AF242EA0B02BA609A6819F4801F14BF93
:100D90002A43AA439A60DA6819F4001F14BF2A4351
:100DA000AA43DA605A6819F4003F14BF2A43AA43E1
:100DB0005A601A6819F4803F14BF2A43AA431A6084
:100DC000013676E7DFF874904A450CD014D8A9F5BF
:100DD00080194A4507D009F570294A4503D0A9F57D
:100DE00080194A4585D18A68D2B1012A4FF008049A
:100DF0000CBF076147617CE7DFF844904A45F2D0B9
:100E000009F58039EDE7CC6873E7CC68043470E706
:100E1000CC6808346DE7CC680C346AE7002468E7D6
:100E2000042466E70022AAE70122A8E70222A6E737
:100E300000100240000401400008014000002210A0
:100E4000000031108368194214BF01200020704750
:100E5000C36801EA030221EA030141EA0241016198
:100E6000704700002DE9F341054638B30368DB07FE
:100E700010D42B689F075ED42B68190700F195806A
:100E80002B685A0700F1C180EB69002B40F02E81DE
:100E9000002029E0914C636803F00C03042B07D079
:100EA000636803F00C03082B0AD16368DE0307D5DF
:100EB00023689C03DDD56B68002BDAD1012013E099
:100EC0006B68B3F5803F12D1236843F4803323600D
:100ED000FFF76AFE064623689803CAD4FFF764FE4C
:100EE000801B6428F7D9032002B0BDE8F0819BB9CC
:100EF000236823F480332360236823F48023236052
:100F0000FFF752FE064623689903B2D5FFF74CFE61
:100F1000801B6428F7D9E6E7B3F5A02F236803D137
:100F200043F480232360CFE723F4803323602368D6
:100F300023F48023CBE7694C636813F00C0F07D0D0
:100F4000636803F00C03082B10D16368DA030DD437
:100F500023689B0702D52B69012BAFD123686A69EF
:100F600023F0F80343EAC203236085E72A695C4B58
:100F70006AB101221A60FFF717FE064623689F0731
:100F8000ECD4FFF711FE801B0228F7D9ABE71A60FB
:100F9000FFF70AFE0646236898077FF56DAFFFF757
:100FA00003FE801B0228F6D99DE7AA694B4C4C4BE7
:100FB000E2B10122C3F88024FFF7F6FD0646636A1A
:100FC0009B070DD54FF4FA52464B1B68B3FBF2F367
:100FD000019300BF019B5A1E0192002BF9D14FE7EC
:100FE000FFF7E2FD801B0228E9D97CE7C3F88024E3
:100FF000FFF7DAFD0646636A9F077FF541AFFFF70B
:10100000D3FD801B0228F6D96DE7344CE369D80084
:1010100024D40127E36943F08053E361E36903F0DB
:1010200080530093009B304E3368D90518D5EB6888
:10103000012B26D1236A43F001032362FFF7B4FD9D
:1010400041F288368046236A9B0740D5002F3FF443
:101050001BAFE36923F08053E36115E70027E2E764
:10106000336843F480733360FFF79EFD8046336836
:10107000DA05DCD4FFF798FDA0EB08006428F6D968
:1010800031E7B3B9236A41F2883623F001032362C2
:10109000236A23F004032362FFF786FD8046236A58
:1010A0009807D3D5FFF780FDA0EB0800B042F6D932
:1010B00019E7052B236A03D143F004032362B9E740
:1010C00023F001032362236A23F00403B5E7FFF74B
:1010D0006BFDA0EB0800B042B5D904E70010024058
:1010E0000000424200000020007000402A4C62686C
:1010F00002F00C02082A3ED00022022B274B1A666F
:101100002CD1FFF751FD06462368990120D42B6AA4
:10111000B3F5803F05D16268A96822F400320A4322
:101120006260696A62680B4322F4741213430122FD
:1011300063601A4B1A66FFF737FD054623689A016C
:101140003FF5A6AEFFF730FD401B0228F6D9CAE6F0
:10115000FFF72AFD801B0228D6D9C4E6FFF724FD3D
:10116000054623689B017FF593AEFFF71DFD401BED
:101170000228F6D9B7E6012B3FF4A0AE60682B6ACF
:1011800000F480329A427FF499AE6B6A00F47010DA
:10119000C01A18BF0120A7E600100240000042421A
:1011A0000D4A536803F00C01082912D10B48C3F310
:1011B0008341DB03405C09D55368094AC3F34043CC
:1011C0005043084AD35CB0FBF3F07047064B5843DA
:1011D00070470348704700BF001002404A4A0008A9
:1011E00000127A00484A000800093D002DE9F0414C
:1011F00004460D4610B90120BDE8F081444A136849
:1012000003F007038B4228D321688E0730D4CA0726
:1012100043D43F4A136803F00703AB4265D8226802
:101220003C4D12F0040F6CD1130706D56B68226990
:1012300023F4605343EAC2036B60FFF7B1FF6B68AE
:10124000354AC3F30313D35CD840344B1860344B96
:101250001868FFF767FC0020CEE7136823F0070348
:101260000B431360136803F007038B42C3D1CBE732
:10127000284B11F0040F1EBF5A6842F4E0625A6016
:10128000080742BF5A6842F460525A605A68A06820
:1012900022F0F00202435A60B9E762681D4E012A4B
:1012A00033681AD113F4003FA5D0736841F288382F
:1012B00023F0030313437360FFF776FC074673685C
:1012C000626803F00C03B3EB820FA2D0FFF76CFC53
:1012D000C01B4045F3D903208EE7022A02D113F048
:1012E000007FE1E713F0020FDEE7136823F0070346
:1012F0002B431360136803F00703AB427FF47BAF0B
:101300008DE76B68E16823F4E0630B436B608BE768
:101310000020024000100240384A0008000000206F
:1013200008000020044B054A5B68C3F30223D35C2A
:10133000034A1068D840704700100240304A000845
:1013400000000020044B054A5B68C3F3C223D35C52
:10135000034A1068D840704700100240304A000825
:101360000000002070B5002842D0002940D00122A2
:101370000C68204B046014F0007F04F01F0002FA98
:1013800000F224D08E689D6816F0010F14BF15433B
:1013900095439D60DD68B6074CBF15439543DD60FE
:1013A00004F0C065B5F1C06F11D10F2500F01C002D
:1013B00000F1804000F5803004F003048668A4004A
:1013C000A54026EA0506CD68A540354385604868F6
:1013D0001968C4074CBF1143914380074FF00000C8
:1013E000196059684CBF0A4321EA02025A6070BD75
:1013F0000120FCE700040140054B00685A69012305
:1014000000F01F008340134023FA00F0704700BF34
:10141000000401400123026802F01F029340014AC8
:101420005361704700040140034610B530B30168B2
:101430001420134A8A18B2FBF0F292001A64114A7F
:10144000DA63022283F82120D3E901242243DC68F5
:10145000086822431C696FF30D1022435C69224324
:101460009C692243DC69224302430A600020012276
:10147000986383F8200083F8212010BD0120FCE749
:10148000F8FFFDBF0000024090F821200346022A29
:1014900006D0042282630120002283F820207047B6
:1014A0000268C06B116821F00E011160116821F013
:1014B0000101116001211A6C01FA02F24260002060
:1014C00083F82110E8E7000008B590F82130022BDE
:1014D00003D004238363012008BD03681A6822F047
:1014E0000E021A601A6822F001021A60174A93422B
:1014F0001FD0143293421ED0143293421DD01432A6
:1015000093421DD0143293421DD01432934214BF23
:101510004FF080734FF480130D4A5360012380F81D
:101520002130002380F82030436B03B1984700201E
:10153000D2E70123F0E71023EEE74FF48073EBE7E7
:101540004FF48053E8E74FF48033E5E708000240AA
:1015500000000240026802F10C0353E8003F23F44C
:1015600090730C3242E8003102680029F2D102F196
:10157000140353E8003F23F0010302F1140C4CE87C
:1015800000310029F3D1036B012B0BD102F10C03C5
:1015900053E8003F23F0100302F10C0C4CE800313B
:1015A0000029F3D1202380F84230002303637047E1
:1015B00010B504460368C1681A6922F440520A4310
:1015C0001A6182680069D9680243606921F4B051E8
:1015D00021F00C0102430A43DA605A69A16922F43E
:1015E00040720A435A610E4A934215D1FFF7AAFE90
:1015F00019235843636864229B00B0FBF3F0B0FBEF
:10160000F2F102FB11031B013233B3FBF2F3246846
:1016100003EB0113A36010BDFFF784FEE8E700BFF2
:1016200000380140F7B504460D4617461E462268AD
:10163000136835EA030301D1002021E0711CF7D0C3
:10164000FFF7B2FAC01B86421CD3DEB12068C36824
:101650005A07ECD5802DEAD0402DE8D003681B074F
:10166000E5D5002501950368019343682046019361
:10167000019BFFF76FFF08230120636484F840504B
:1016800003B0F0BD0320FBE7704710B5044648B334
:1016900090F8413003F0FF021BB980F84020FFF7BB
:1016A000F3FF2423226884F84130D368204623F4D2
:1016B0000053D360FFF77CFF236800201A6922F4EF
:1016C00090421A615A6922F02A025A61DA6842F499
:1016D0000052DA602023606484F8413084F842309C
:1016E000606310BD0120FCE72DE9F843984690F8AF
:1016F00041300446202B0E4617463ED100293ED0ED
:10170000002A3CD021230025456480F84130FFF7B2
:101710004BFAA3688146B3F5805FA784E78403D1C1
:1017200023690BB935461E46E38C9BB253B9434639
:101730004A4640212046FFF775FF202350B984F820
:1017400041300AE043464A4680212046FFF76AFFBF
:1017500028B12023032084F84130BDE8F8832268B3
:1017600046B935F8023BC3F308035360E38C013BF1
:10177000E384D9E716F8013BF7E70220EDE7012003
:10178000EBE790F84130202B10D189B182B1C284AF
:1017900082840023212201620168436480F8412091
:1017A000CA68184642F08002CA607047022070473B
:1017B000012070477047704708B50023406AC38511
:1017C000FFF7F9FF08BD704790F8423007B5222BAC
:1017D00042D181680268B1F5805F836A3ED10169B8
:1017E00000293ED15268C2F3080223F8022B83621B
:1017F000C38D013B9BB2C385002B2DD10268D168FC
:1018000021F02001D160D16821F48071D16051694B
:1018100021F001015161202280F842204363026BD4
:10182000012A026826D1036302F10C0353E8003F4A
:1018300023F0100302F10C0C4CE800310029F3D125
:101840001368DB0605D50191136801935368019372
:10185000019B818DFFF7B7FF03B000BD31B901696E
:1018600021B952681A70836A0133C0E7526802F0E6
:101870007F02F7E700F060FBEEE70000036873B556
:101880001A6804461607D9685D6908D1960668D5B6
:101890008D0666D502B0BDE87040FFF795BF05F034
:1018A000010001F4907505435BD0D60705D5CD0541
:1018B00042BF636C43F001036364530704D518B15E
:1018C000636C43F002036364960704D518B1636C3C
:1018D00043F004036364150707D501F020030343B5
:1018E0001EBF636C43F008036364636C002B32D04B
:1018F000920604D58B0602D52046FFF765FF2668C1
:1019000020467369626C03F0400302F0080253EA58
:10191000020522D0FFF71EFE73695E0618D5226805
:1019200002F1140353E8003F23F04003143242E86D
:1019300000310029F3D1E06B50B1764B4363FFF7E0
:10194000C3FD40B1E06B436B02B0BDE87040184787
:101950002046FFF730FF02B070BDFFF72CFF656433
:10196000F9E7206B012840F09880D50640F195807A
:10197000C80640F19280002201921A6801925A68CA
:101980000192019A5969A28D490654D5E06B01680C
:10199000496889B2002946D0914244D28269E185E2
:1019A000202A36D003F10C0252E8002F22F4807274
:1019B00003F10C0040E800210029F3D103F11402E7
:1019C00052E8002F22F0010203F1140040E8002148
:1019D0000029F3D103F1140252E8002F22F0400253
:1019E00003F1140040E800210029F3D1202284F8FB
:1019F0004220216303F10C0252E8002F22F0100272
:101A000003F10C0040E800210029F3D1E06BFFF75F
:101A10003BFD02236363E38DA18DC91A89B2204681
:101A2000FFF7D1FE97E7914295D18369202B92D1A0
:101A300002236363F3E7E08DE18D89B200298AD048
:101A4000111A89B2002986D003F10C0252E8002F46
:101A500022F4907203F10C0545E800200028F3D130
:101A600003F1140252E8002F22F0010203F11405E1
:101A700045E800200028F3D1202284F8422020638A
:101A800003F10C0252E8002F22F0100203F10C05C2
:101A900045E800200028F3D1CAE7160628D50D0630
:101AA00026D594F84120212A7FF455AFA168226AF7
:101AB000B1F5805F17D12169A9B932F8021BC1F3D2
:101AC000080159602262E28C013A92B2E284002A53
:101AD0007FF441AFDA6822F08002DA60DA6842F01F
:101AE0004002DA6037E7511C216212785A60EAE757
:101AF00050067FF530AF4A067FF52DAFDA682046F5
:101B000022F04002DA60202384F84130FFF752FED1
:101B100021E700BFB91700080023C28543642223D0
:101B20008285026980F84230816203681AB1DA68FE
:101B300042F48072DA605A69002042F001025A6170
:101B4000DA6842F02002DA60704770B490F84260C0
:101B5000202E06D141B13AB10024046370BCFFF7D6
:101B6000DBBF022070BC70470120FBE700B591B0DD
:101B7000FEF7FCFF1422002108A801F053F81422FC
:101B8000002101A801F04EF801264FF48033022411
:101B9000CDE90663CDE90D434FF4E01306A80F939A
:101BA000FFF760F9054600B1FEE70F23CDE90134E8
:101BB0004FF480632146CDE90430039001A8FFF77C
:101BC00015FB134B13489A6906A942F010029A615B
:101BD0009B69089503F010030193019B4FF4005398
:101BE0000994CDE90636FFF759F800F04DF800F0FA
:101BF000B9F800F011F9084800F036FF4FF4005131
:101C00000448FFF725F94FF4FA70FEF7D3FFF2E727
:101C100000100240001001405A4A000810B5144656
:101C20004FF0FF3392B20248FFF75EFD204610BD31
:101C3000880200207047FEE7FEE7FEE7FEE77047F8
:101C400070477047FEF7A4BF7FB50023CDE900338E
:101C50000123064A6846CDE90223032202A9CDE901
:101C60000423FFF77FFB07B000BD00BF0E00000696
:101C700008B5282000220221FEF7C0FFBDE8084079
:101C80002820FEF7E9BF00007FB50023CDE903332C
:101C9000059303F1804303F504339A690B4842F03E
:101CA00008029A619B6902A903F008030193019B52
:101CB0004FF44043029301230493FEF7EFFFFFF735
:101CC000C3FFFFF7D5FF07B000BD00BF000C014008
:101CD000002213B5104B03216846CDE90032FFF70F
:101CE0008BFBB0B103216846FFF794FB4FF48041B2
:101CF0000A48FFF7A7F84FF4004104460748FFF7EA
:101D0000A1F8074B84421A680CBF013202F1FF327E
:101D10001A6002B010BD00BF0E000006000C0140AA
:101D2000F80100207FB50023CDE900330123064AE6
:101D30006846CDE90223032202A9CDE90423FFF777
:101D400011FB07B000BD00BF0300000608B5092065
:101D500000220221FEF752FFBDE808400920FEF7ED
:101D60007BBF00007FB50021154B05919A6915488E
:101D700042F001029A619A6902F001020092009A0F
:101D8000426822F0E06242F0007242609A6900F517
:101D9000406042F008029A619B6903F008030193D6
:101DA000019B1823CDE90231012302A90493FEF718
:101DB00075FFFFF7B7FFFFF7C9FF07B000BD00BF12
:101DC0000010024000000140002213B50F4B032118
:101DD0006846CDE90032FFF70FFBA0B1032168464A
:101DE000FFF718FB08210A48FFF72CF810210446DA
:101DF0000748FFF727F8074B84421A680CBF0132E7
:101E000002F1FF321A6002B010BD00BF03000006ED
:101E1000000C0140F40100202DE9F043002487B0BC
:101E2000394D0494EB69042243F40033EB61EB6910
:101E30004FF0030803F400330093009BAB6902A941
:101E400043F00403AB61AB69304803F00403019332
:101E5000019B0223CDF81480CDE90223FEF71EFF7B
:101E6000082301270DEB03012848CDE9023404972C
:101E7000FEF714FF6B694FF080093B436B616B69A0
:101E8000234E3B400293029B1023224D22493046B1
:101E9000C6E90013C6E90394C6E90544B460F461D9
:101EA000FFF7C2FAAE6375621C4B1D4EC6E90034E3
:101EB0004FF400533046F361C6E90249C6E90444D1
:101EC000B461FFF7B1FA4FF4E1331648C5E90244B3
:101ED000C5E900030C232846C5E90534EE637562A5
:101EE0002C61EC61FFF7D1FB224641462620FEF72C
:101EF00085FE2620FEF7B0FE3A4628460A4907B07E
:101F0000BDE8F043FFF721BE001002400008014089
:101F10004402002088020020800002406C00024041
:101F20000002002000440040FC0100200148FFF7AF
:101F3000A5BC00BF8802002008B50268074B9A4282
:101F40000BD1012206490748FFF71BFCBDE80840FA
:101F5000012203490348FFF7F8BD08BD00440040D3
:101F6000FC01002088020020002B2DE9F0471D46CF
:101F7000BBBF03F100431D4600232D2388B0149FEF
:101F8000144627F02007B8BF1446129A462F109E19
:101F9000DDF84CA0137004D0452F00D10136022388
:101FA00000E0032307AA049206AACDE902A2CDE924
:101FB000003622462B4600F047FF472F80461AD1B5
:101FC000119BDB070ED500EB0609002200232046FB
:101FD0002946FEF7C9FC08B1CDF81C903022079BBA
:101FE0004B451ED34046079B159AA3EB080313608D
:101FF00008B0BDE8F087462F00EB0609E5D103786D
:10200000302B0AD10022002320462946FEF7ACFCE3
:1020100018B9C6F10106CAF80060DAF80030994430
:10202000D3E7591C07911A70D9E7F7B50029B6BF55
:102030002D232B2349420929027043702BDD0DF11A
:102040000704A6460A26871CB1FBF6F5A44606FB44
:102050001512632902F13002294604F1FF340CF80D
:10206000012CF1DC3031ACF1020204F8011C144601
:10207000411C72450AD30DF10903A3EB0C03A645DD
:1020800038BF00233B44181A03B0F0BD12F8013BDF
:1020900001F8013FEDE7302330318370C170031D3B
:1020A000F1E700002DE9F04F93B00C46DDF87080A9
:1020B00016461F46054600F0BDFD036818460B9303
:1020C000FEF726F800231093D8F8003094F818A0F3
:1020D000073323F00703F3E80212D4F800B0CDE988
:1020E0000812C8F8003013460A46C4E91223DDE995
:1020F000088323F000490C904FF0FF3240464946D8
:102100009A4BFEF763FC70BB4FF0FF3240464946E6
:10211000964BFEF73DFC30BBDDE9080100220023B1
:10212000FEF72CFC10B12D2384F84330904A914BDC
:10213000BAF1470F8CBF9046984603234FF0000931
:1021400023612BF004032360334621462846009781
:1021500011AA00F0D1F9013040F08F804FF0FF302C
:1021600013B0BDE8F08FDDE9082310461946FEF7ED
:102170002DFC40B1099B804A002BBCBF2D2384F865
:1021800043307E4BD4E763680AF0DF095A1C3ED126
:102190000623636000224BF480632360069210AA3A
:1021A000CDE904A20FAA03920DF13B02CDE9013261
:1021B000636828460093DDE90823FFF7D5FEB9F1EF
:1021C000470F80460F9929D1C81C02DB63688B42F8
:1021D00041DAAAF1020A5FFA8AFA5246013904F199
:1021E00050000F91FFF721FF109A81461318012A22
:1021F000236102DC2268D20701D5013323619DF8F7
:102200003B30002BA0D02D2384F843309CE7B9F15C
:10221000470FBFD1002BBDD10123BAE7BAF1650F3B
:10222000DBD9BAF1660F18D1002963680BDD216193
:1022300013B92268D00702D501330B4423614FF054
:102240000009A165DBE713B92268D20701D5023383
:10225000F4E70123F2E74FF0670A109B8B4205DC9D
:1022600023682161D807EAD54B1CE7E70029CCBFDA
:102270000122C1F102021344E0E723685A0507D4A2
:102280002369424631462846B847013028D165E7E0
:10229000BAF1650F40F2DC80D4E91201002200237C
:1022A000FEF762FB90B3012331462846344AB84713
:1022B00001303FF453AFDDE90F38434502DB2368BB
:1022C000D8070DD5DDE90B2331462846B847013044
:1022D0003FF444AF4FF0000908F1FF38C84509DC6E
:1022E00023689B0700F10581E068119B9842B8BF05
:1022F000184635E701233146284604F11A02B8474B
:1023000001303FF42BAF09F10109E7E70F9B83424E
:1023100038DC012331462846194AB84701303FF4DA
:102320001DAFDDE90F3959EA030302D12368D9074C
:10233000D6D5DDE90B2331462846B84701303FF4B6
:102340000DAF4FF0000A0F9B5B42534501DC4B463B
:1023500097E701233146284604F11A02B8470130B5
:102360003FF4FCAE0AF1010AEDE700BFFFFFEF7F8B
:102370006B4A0008674A0008734A00086F4A000861
:10238000774A0008A36DDDF840B05B45A8BF5B4607
:10239000002B089337DC4FF0000904F11A02089B68
:1023A000D4F858A0002BB4BF5346AAEB03034B4507
:1023B00031DC0F9B9B453ADC2368DA0737D40F9B4F
:1023C000ABEB0309ABEB0A039945A8BF9946B9F1FA
:1023D000000F34DC4FF000080F9BB9F1000FABEB9E
:1023E0000303A8BFA3EB090343457FF779AF01239C
:1023F0003146284604F11A02B84701303FF4AEAE28
:1024000008F10108E8E7424631462846089BB847EC
:102410000130C0D1A2E60123314628460D92B847CB
:1024200001303FF49BAE0D9A09F10109B7E731463F
:10243000DDE90B232846B8470130C0D18EE64B4674
:102440003146284608EB0A02B8470130C2D185E67A
:10245000DDF840A0BAF1010F01DCDB0735D501231F
:10246000424631462846B84701303FF477AEDDE9B1
:102470000B2331462846B84701303FF46FAED4E90C
:102480001201002200230AF1FF3AFEF76DFAC8B9E3
:10249000534608F1010231462846B84701300DD1B4
:1024A0005CE601233146284604F11A02B8470130A0
:1024B0003FF454AE08F10108D045F2DB4B4604F17D
:1024C0005002DFE64FF00008F6E701234246E2E75C
:1024D00001233146284604F11902B84701303FF480
:1024E0003DAE08F10108E36811995B1A4345EFDC42
:1024F000FAE64FF00008F6E72DE9F04791469846D6
:102500008A680B6907469342B8BF1346C9F8003082
:1025100091F843200C46089E12B10133C9F80030EF
:102520002368990642BFD9F800300233C9F8003059
:10253000256815F0060507D104F1190AE368D9F8F2
:1025400000209B1AAB4229DC94F843302268003B00
:1025500018BF012392062ED44146384604F14302A7
:10256000B047013021D02368A16803F00603042B93
:1025700012BF0025E568D9F80030226904BFED1AC2
:1025800025EAE5758B1A2B449142C8BF1D464FF0D2
:1025900000091A344D451AD1002008E001235246A3
:1025A00041463846B047013003D14FF0FF30BDE817
:1025B000F0870135C2E73020E11881F843005A1C4A
:1025C00094F845102244023382F84310C4E70123F3
:1025D000224641463846B0470130E6D009F10109AC
:1025E000D8E700002DE9F04398460B7E85B0782BA4
:1025F000174606460C460C9A09D8622B01F1430196
:1026000008D8002B00F0DC80582B00F0BD8004F1CE
:10261000420539E0A3F163001528F8D801A555F863
:1026200020F000BF7D260008912600080F26000834
:102630000F2600080F2600080F2600089126000824
:102640000F2600080F2600080F2600080F26000896
:10265000A1270008BD2600084F2700080F26000804
:102660000F260008C92700080F260008BD2600080D
:102670000F2600080F26000857270008136804F1EA
:102680004205191D1B68116084F842300123A8E03F
:1026900013682568181D1060280601D51B6803E023
:1026A0006A06FBD5B3F90030002B03DA2D225B421A
:1026B00084F843200A22DFF878C113E02568106807
:1026C00015F0800F50F8043B02D16D0648BF9BB255
:1026D0001060227EDFF858C16F2A5DD108220020E9
:1026E00084F843006568002DA56005DB20681D4364
:1026F00020F00400206051D00D46B3FBF2F002FB45
:10270000103E1CF80EE09A4205F801ED0346F4D99C
:10271000082A0BD12368DA0708D5236962689A4230
:10272000DEBF302305F8013C05F1FF35491B21616F
:102730003B4621463046CDF8008003AAFFF7DCFE79
:10274000013053D14FF0FF3005B0BDE8F08323686E
:1027500043F0200323607823DFF8D8C084F84530A5
:102760002068156810F0800F55F8043B03D110F075
:10277000400F18BF9BB21560C50744BF40F0200052
:10278000206023B11022AAE7DFF8A4C0E6E72268A0
:1027900022F020022260F5E70A22A0E70D46B7E703
:1027A0001368D4F800C01D1D60691CF0800F15600F
:1027B0001B6801D0186003E01CF0400FFAD01880AD
:1027C00000230D462361B3E71368191D11601D68CE
:1027D00000212846626800F09EFA08B1401B606044
:1027E00063682361002384F84330A1E72A46394611
:1027F00030462369C0470130A4D023689B0714D416
:10280000E068039B9842B8BF18469DE7012339460C
:10281000304604F11902C047013093D00135E36816
:1028200003995B1AAB42F1DCEAE70025F7E700BF4A
:10283000794A00088A4A0008002310B50446C0E916
:102840000033C0E90433836081814366C2818361C0
:10285000194608225C3000F0E5F90D4B24626362F2
:102860000C4BA3620C4BE3620C4B23630C4B9C425E
:1028700006D003F16802944202D0D0339C4205D1C5
:1028800004F15800BDE8104000F042BA10BD00BF8E
:10289000792A00089B2A0008D32A0008F92A000890
:1028A000D0020020024A0349034800F06BB800BF81
:1028B0000C000020254400081C00002041680C4B3F
:1028C00010B59942044601D001F0ACFDA168094B56
:1028D000994202D0204601F0A5FDE168064B9942DD
:1028E00004D02046BDE8104001F09CBD10BD00BFE3
:1028F000D002002038030020A003002010B50A4BAE
:102900000A4A04211A600A480022FFF795FF0122B3
:1029100009210848FFF790FFBDE81040022212216C
:102920000548FFF789BF00BF08040020A52800085C
:10293000D002002038030020A0030020014800F04E
:10294000E8B900BF11040020014800F0E3B900BF5E
:102950001104002010B50446FFF7F0FF236A1BB1F5
:10296000BDE81040FFF7F0BF044B2362044B1B6827
:10297000002BF5D1FFF7C2FFF2E700BFBD2800082A
:10298000080400202DE9F8438046894614460026B5
:10299000D4E90175013F05D52468002CF8D13046F3
:1029A000BDE8F883AB89012B07D9B5F90E300133A7
:1029B00003D029464046C84706436835EAE7036A1C
:1029C00070B505460E4684680BB9FFF7C3FF636E0A
:1029D000DB0705D4A389980502D4A06D00F099F90E
:1029E000A389190702D52369002B35D12146284632
:1029F00000F0C4F880B34FF0FF35636EDA0705D4FA
:102A0000A3899B0502D4A06D00F084F9284670BD0F
:102A1000002B04DAA269934217DB0A2915D0236838
:102A20005A1C22601970A36816F8011F013BA360AD
:102A30000029EDD18B4211DA22460A21284600F006
:102A40005FF80130D7D00A25D7E72246284600F0A4
:102A500057F80130E7D1CEE7013EE4E723685A1C7E
:102A600022600A221A70EEE7024B01461868FFF74F
:102A7000A6BF00BF1800002010B50C46B1F90E101B
:102A800000F0FEF80028ABBF636DA3891B1823F488
:102A90008053ACBF6365A38110BD2DE9F0411F4693
:102AA0008B890546DB050C46164605D50223002218
:102AB000B1F90E1000F0D2F8A389324623F4805306
:102AC000A38128463B46B4F90E10BDE8F04100F062
:102AD000E9B810B50C46B1F90E1000F0BFF8B4F922
:102AE0000C30421C0BBF23F4805343F48053A3816A
:102AF000A38118BF606510BDB1F90E1000F09EB83B
:102B0000F8B505460F46144618B1036A0BB9FFF72E
:102B100021FFA369A360A3891A0701D5236943B9DB
:102B20002146284600F02AF818B14FF0FF3630460B
:102B3000F8BD23692068C01A6369834205DC214619
:102B4000284601F06FFC0028EFD1A3680130013B5B
:102B5000A3602368FEB25A1C22601F70636983421F
:102B600004D0A389DB07E2D50A2EE0D1214628460E
:102B700001F058FC0028DAD0D7E7000038B5284B20
:102B8000054618680C4618B1036A0BB9FFF7E2FE58
:102B9000B4F90C30190720D4DA0607D409222A60C8
:102BA00043F040034FF0FF30A38131E0580711D5C7
:102BB000616B41B104F14403994202D0284600F010
:102BC00021FF002363630022A3896260226923F04E
:102BD0002403226043F00803A38123694BB9A3892E
:102BE00003F42073B3F5007F03D02146284601F09B
:102BF00065FCB4F90C3013F001020AD00022A26087
:102C000062695242A261226942B913F08000C7D1C1
:102C100038BD990758BF6269A260F4E70020F7E762
:102C20001800002003460244934200D1704703F885
:102C3000011BF9E7004870475801002038B5002310
:102C4000054C05460846236001F09CFE431C02D15A
:102C5000236803B12B6038BD0C04002038B505464D
:102C6000084611460022054C22601A4601F0B2FEC9
:102C7000431C02D1236803B12B6038BD0C04002033
:102C800038B50546084611460022054C22601A4612
:102C900001F0A8FE431C02D1236803B12B6038BDAC
:102CA0000C04002038B50546084611460022054CA4
:102CB00022601A46FEF7B2FF431C02D1236803B11B
:102CC0002B6038BD0C04002070B500260C4C0D4B59
:102CD0001D1BB6EBA50F09D1002601F09BFE0A4C87
:102CE0000A4B1D1BB6EBA50F05D170BD54F8043B74
:102CF00098470136EDE754F8043B98470136F1E771
:102D0000F44D0008F44D0008F44D0008F84D00089B
:102D1000704770477047034610B5C9B202449342EA
:102D200001D1002004E01846047801338C42F6D12A
:102D300010BD2DE9F74F03690C698046A3427EDB85
:102D4000013CA30000F1140501F11407009305EB09
:102D50008403019357F8243055F8242001339A4214
:102D6000B2FBF3F607EB84092ED34FF0000ABC4602
:102D7000AE46D3465CF8043B98B206FB00A01B0CA1
:102D8000020C06FB0323DEF8002080B292B2121A76
:102D90005A44DEF800004FEA134A9BB2C3EB2243C9
:102DA00003EB104392B242EA0342E1454FEA234B60
:102DB0004EF8042BDED2009BEB582BB9019B1A1F57
:102DC000954230D3C8F81040404601F0A3F90028DE
:102DD00025DB29460020013657F8042BD1F800C026
:102DE0001FFA82FE1FFA8CF3A3EB0E030344120CAE
:102DF000C2EB234202EB1C429BB243EA0243B945B9
:102E00004FEA224041F8043BE6D255F8242005EB76
:102E1000840322B9043B9D420BD3C8F810403046CE
:102E200003B0BDE8F08F1368002BCBD1043A013C0E
:102E3000C6E71A68002AF0D1043B013CEBE700200A
:102E4000EEE70000000000002DE9F04F16461F4697
:102E5000C26999B08146CDE90E67259C82B91020E0
:102E600000F01AFE0246C9F81C0020B9EF21A24B5F
:102E7000A24801F09DFB0023C0E901330360C36059
:102E8000116859B101235268484693404A608B60EB
:102E900000F0F2FE0022D9F81C301A60B7F10008E9
:102EA000B5BF0123002323602360954BBCBF28F0EE
:102EB0000048CDF83C8033EA08031AD142F20F7380
:102EC000249AC8F3130858EA0608136000F06D85C9
:102ED000269B53B98B4B21E08B4B03930833269AE7
:102EE0001360039819B0BDE8F08F864B039303334A
:102EF000F5E7DDE90E34CDE90A34DDE90A01002207
:102F00000023FDF731FD824650B10123249A13605E
:102F1000269B13B17D4B269A13607D4B0393E0E70C
:102F200016AB019317AB00934846DDE90A2301F085
:102F3000A5F95FEA1854169D04907CD0DDE90A01DA
:102F40000B9BA4F2FF34C3F3130343F07F5343F40A
:102F50004013CDF850A0194600226E4BFDF7E4F85F
:102F60005FA3D3E90023FDF797FA5FA3D3E900231A
:102F7000FDF7DCF8064620460F46FDF723FA5CA372
:102F8000D3E90023FDF788FA02460B46304639465E
:102F9000FDF7CCF806460F46FDF72EFD00228046D1
:102FA000002330463946FDF7E9FC48B14046FDF7BD
:102FB00009FA32463B46FDF7D7FC08B908F1FF385D
:102FC000B8F1160F54D8DDE90A01534B03EBC803DF
:102FD000D3E90023FDF7D2FC00284BD0002308F1F1
:102FE000FF3811932D1B6B1E099349BF0023002747
:102FF000C5F101070993B8F1000F3DDB099BCDF83E
:1030000040804344099300230C93229B092B00F238
:103010008780052BC4BF043B2293229BC8BF00249A
:10302000A3F10203D8BF0124032B00F28580DFE85F
:1030300003F05153362B179C2C4404F23243202BBF
:10304000C1BFC3F1400308FA03F804F2124326FAA1
:1030500003F3D6BFC3F1200348EA030006FA03F0E6
:10306000FDF7A0F90122A1F1F873013C149272E777
:103070000123B6E71190B5E7C8F100030C930023D4
:10308000A7EB08071093C0E701230D93239B43444C
:1030900008930133012B0593B8BF012306E00123F8
:1030A0000D93239B002B4ADD0893059300210422F6
:1030B000D9F81C0002F114059D4245D941604846EB
:1030C00000F09CFD0390002841D1024640F2AF1170
:1030D000124BCDE60023E3E70023D6E7AFF30080F1
:1030E00061436F63A787D23FB3C8608B288AC63F0E
:1030F000FB799F501344D33FA84A0008BF4A0008F9
:103100000000F07FA44A00089B4A0008784A0008A3
:10311000774A00080000F83F204C0008204B0008C8
:10312000012400230D9422934FF0FF3300220893D3
:10313000059323921223B9E701230D93F4E70123AA
:10314000089305932393B1E701315200B2E7D9F810
:103150001C30039A1A60059B0E2B75D8002C73D077
:10316000B8F1000F40F3C4809F4B08F00F0203EB4F
:10317000C20318F4807F4FEA2815D3E900AB00F0B2
:10318000A380DDE90A01994B0324D3E90823FDF765
:10319000ADFACDE9060105F00F05944E002D40F083
:1031A0009980DDE9060152465B46FDF79FFA8246AB
:1031B0008B46119B002B00F0C380002250465946DD
:1031C0008B4BFDF7DBFB002800F0BA80059B002B42
:1031D00000F0B680089B002B36DD08F1FF33504627
:1031E000594606930022834BFDF756F982468B46DB
:1031F000089E01342046FDF7E5F852465B46FDF790
:103200004BF900227C4BFCF791FF0446A1F150756D
:10321000CDE91245002E40F09780002250465946D5
:10322000764BFCF781FF22462B4682468B46FDF704
:10323000C3FB002840F0C18222465046594605F1A2
:103240000043FDF79BFB20BB179B002BC0F2918135
:10325000B8F10E0F00F38D81634B03EBC803D3E984
:1032600000AB239B002B80F21B81059B002B00F3FE
:1032700017810ED10022614B50465946FDF70CF9DB
:1032800002460B46DDE90A01FDF782FB002800F04B
:10329000978200252C46239B039EDB4306932746FB
:1032A00000242946484600F0E7FC002F00F0EE809D
:1032B0002CB1BC4203D02146484600F0DDFC394623
:1032C000484600F0D9FCE1E0DDE90A34CDE90634F6
:1032D000022462E7E90708D5D6E90023504659469B
:1032E000FDF7DAF882468B4601346D10083655E753
:1032F00022D0DDE90A01C8F100053B4B05F00F02C1
:1033000003EBC203D3E90023FDF7C6F8022482468B
:103310008B46364E2D11002D3FF44BAFEA0708D5F2
:10332000D6E9002350465946FDF7B6F882468B464B
:1033300001346D100836EEE70224DDE90AAB38E708
:10334000059ECDF8188055E7274B03EBC60353E9DC
:1033500002010D9B002B55D002460B460020284948
:10336000FDF7C4F9DDE91223FCF7DEFE039BCDE98E
:1033700012019D191E4659465046FDF73DFB00F1CE
:103380003004FDF71FF802460B4650465946FCF73D
:10339000CBFEDDE9122306F8014B82468B46FDF792
:1033A000EDFA002872D152465B4600201049FCF726
:1033B000BBFEDDE91223FDF7E1FA002840F0BA80F8
:1033C000AE423FF441AFDDE912010022094BFDF7A7
:1033D00063F80022CDE91201064B50465946FDF72D
:1033E0005BF882468B46C6E7204C0008F84B000885
:1033F0000000F03F0000244000001C40000014408A
:103400000000E03FDDE91223FDF746F8039BCDE91C
:1034100012013344039C159359465046FDF7ECFACC
:1034200000F13005FCF7CEFF0B46024659465046E8
:10343000FCF77AFE159B04F8015B9C4282468B46A2
:1034400027D1DDE91201039B00221E44AC4BFCF79F
:103450006DFE02460B4650465946FDF7ADFA002870
:1034600068D1DDE912230020A549FCF75DFE024684
:103470000B4650465946FDF781FA00283FF4E4AE6A
:10348000334616F8012D302AFAD01E46DDF8188092
:103490003EE000229B4BFCF7FFFF82468B46BBE7DA
:1034A0000024039E974D5246DDE90A015B46FDF775
:1034B0001DF9FDF7A1FA0746FCF784FF52465B466B
:1034C000FCF7EAFF02460B46DDE90A01FCF72CFE99
:1034D00007F1300C06F801CBDDF80CC0DDF814E084
:1034E000A6EB0C0CE64502460B4633D1FCF71EFE5C
:1034F00052465B4604460D46FDF75EFAC0B9524699
:103500005B4620462946FDF72FFA08B1FB070FD48A
:103510004846049900F0B0FB0023249A337008F168
:1035200001031360269B002B3FF4DBAC1E60D8E444
:10353000CDF8188033461E4613F8012D392A06D1DE
:10354000039A9A42F7D1069A01320692302201324A
:103550001A709BE722462B46FCF79EFF02460B465D
:10356000CDE90A2300220023FDF7FEF900289AD0B6
:10357000CEE70D9A002A00F0DF80229A012A00F39C
:10358000C380149A002A00F0B78003F233430C9DE5
:103590003E46099A01211A4448461F44099200F008
:1035A0001FFC044656B1099B002B07DDB342A8BFA0
:1035B0003346099AFF1AF61AD31A09930C9B0BB3D8
:1035C0000D9B002B00F0BF80002D00F0B98021463C
:1035D0002A46484600F0D0FC049A01460446484674
:1035E00000F014FC04998246484600F045FB0C9B11
:1035F0005B1B0C9300F0AA8051460C9A484600F0E1
:10360000BBFC04900121484600F0EAFB109B0546F4
:10361000002B00F0D1811A460146484600F0ACFC70
:10362000229B0546012B00F399800E9B002B40F056
:1036300090800F9BC3F31303002B40F08A800F9BF5
:1036400023F000431B0D1B05002B00F085804FF07D
:10365000010A099B013701330993109B002B00F0ED
:10366000B1812B6905EB8303186900F06DFBC0F194
:103670002000099B184410F01F0076D01B2870DC36
:10368000C0F11C000744064403440993002F05DDE4
:103690003A464846049900F0CBFC0490099B002B65
:1036A00005DD29461A46484600F0C2FC0546119B36
:1036B000002B5FD02946049800F02CFD002859DA31
:1036C00008F1FF3306930A2200234846049900F0CC
:1036D000F5FA0D9B0490002B00F076810023214623
:1036E0000A22484600F0EAFA089B0446002B71DCE7
:1036F000229B022B47DC6DE0169BC3F1360346E7A5
:103700000000E03F00002440059B5D1E0C9BAB4287
:1037100008DB5D1B059B002BBFF63AAF059BFE1A2D
:10372000002336E70C9B109AEB1A1A440C953E4680
:103730000025059B10922CE73E460C9D0D9C31E721
:10374000DDF810A058E70C9A049957E7CDF810A0BF
:1037500058E74FF0000A80E79A467EE74FF0000AEC
:103760007FE71C2892D0C0F120001C30099B074441
:10377000064489E7059BCDF81880002B24DC0893CC
:10378000229B022B22DD089B002B7FF484AD29466F
:103790000522089B484600F091FA01460546049828
:1037A00000F0B8FC00287FF776AD3123039E06F8C1
:1037B000013B069B0133069371E535462C46F4E741
:1037C000059DCDF81880F9E7059B08930D9B002B0C
:1037D00000F0FE80002E05DD21463246484600F00E
:1037E00027FC0446BAF1000F58D04846616800F043
:1037F00005FA064628B9024640F2EF217F4BFFF753
:1038000037BB226904F10C01023292000C3000F047
:10381000C1FE01223146484600F00AFC0746039BE0
:10382000039A03F10108089B13440A930E9B03F0CB
:103830000103099329460498FFF77BFA2146059076
:1038400000F1300B049800F065FC3A4608902946D8
:10385000484600F07BFCC268064608F1FF3AFAB918
:103860000146049800F056FC0246314648460C9248
:1038700000F002FA229B0C9A464642EA0301099B99
:1038800019430FD1BBF1390F28D0089B002B02DD63
:10389000059B03F1310B8AF800B002E52746BEE72D
:1038A0000122E2E7089B002B04DB22990B430999D4
:1038B0000B4320D1002AEEDD01220499484600F096
:1038C000B7FB2946049000F025FC002803DCE2D178
:1038D0001BF0010FDFD0BBF1390FD9D139238AF8A2
:1038E000003033461E4616F8012C013B392A53D0CE
:1038F00001321A70D5E4002A07DDBBF1390FEDD093
:103900000BF101038AF80030CBE40A9B08F801BCF4
:1039100043452BD000230A220499484600F0CEF9F3
:10392000BC4204904FF000034FF00A022146484683
:1039300006D100F0C3F90446074608F1010879E70B
:1039400000F0BCF93946044600230A22484600F03C
:10395000B5F90746F1E7089B2746002B03F1FF3630
:10396000D8BF00260024039B5A1C16440122049948
:10397000484600F05DFB2946049000F0CBFB002890
:10398000AFDC02D11BF0010FABD133461E4613F85A
:10399000012D302AFAD084E4039A9A42A2D1069BE0
:1039A00001330693312313707BE4269B002B7FF4B5
:1039B00093AA134BFFF7B2BA229B012B7FF735AEC8
:1039C000DDF840A0012054E6089B002B7FF7D8AE1D
:1039D000039E29460498FFF7ACF9039B00F1300BD6
:1039E00006F801BBF21A089B9342B4DD00230A22B9
:1039F0004846049900F062F90490EAE7204B000879
:103A00009B4A000837B5002942D051F8043C0C1FEE
:103A1000002BB8BFE418019000F0E4F81D4A0198AB
:103A2000136833B96360146003B0BDE8304000F040
:103A3000DFB8A34208D9256861198B4201BF196814
:103A40005B6849192160EDE71A465B680BB1A34238
:103A5000FAD911685518A5420BD12468214454188D
:103A6000A3421160E0D11C685B680C441460536091
:103A7000DAE702D90C230360D6E7256861198B4287
:103A800001BF19685B684919216063605460CBE726
:103A900003B030BD18040020024B0146186800F046
:103AA00025B800BF1800002070B50F4C0E462168E5
:103AB000054611B900F05EFD20603146284600F051
:103AC00059FD431C03D14FF0FF34204670BDC41C88
:103AD00024F00304A042F8D0211A284600F04AFD41
:103AE0000130F2D1EFE700BF140400202DE9F843C4
:103AF000CD1C25F0030508350C2D38BF0C25002DF5
:103B0000064601DBA94204D90C2333600020BDE83E
:103B1000F883334F00F066F83B681C463CBB2946EF
:103B20003046FFF7C1FF431C044656D13C68A0460F
:103B3000B8F1000F40D1002C49D0236841463046EF
:103B400004EB030900F016FD814540D121683046A1
:103B50006D1A2946FFF7A8FF013038D023682B449F
:103B600023603B685A685ABBC7F800800EE02268A1
:103B7000521B1ED40B2A16D96119A342256018BF07
:103B80005960636808BF396062514B60304600F08D
:103B90002FF804F10B00231D20F00700C21A1CBFF0
:103BA0001B1AA350B3E76268A3420CBF3A605A6085
:103BB000ECE723466468B1E74446D8F80480B7E7E9
:103BC0001A465B68A342FBD100235360DEE70C2357
:103BD0003046336000F00CF898E70560D6E700BF88
:103BE000180400200148FFF794B800BF100400201B
:103BF0000148FFF78FB800BF1004002070B5C469FA
:103C000005460E4684B91020FFF746FF0446E861DA
:103C100028B902466B21164B164800F0C9FC002358
:103C2000C0E901330360C360E36853B92122042172
:103C3000284600F0DBFCEB69E060DB680BB9002094
:103C400070BD53F8260030B1026843F826200023E7
:103C5000C0E90333F4E7012101FA06F4621D2846A6
:103C6000920000F0C3FC0028E9D0C0E90164EEE74F
:103C7000A84A0008314B000870B5C46906460D46D5
:103C800074B91020FFF708FF0246F06120B98F21B8
:103C9000084B094800F08CFCC0E901440460C46092
:103CA0003DB1F3696A68DB6853F82210296043F874
:103CB000225070BDA84A0008314B00082DE9F041A0
:103CC00007460C461E4600200D6901F1140CDCF875
:103CD0000030013099B202FB01611E0C0B0C02FB9B
:103CE000063389B201EB034185424FEA13464CF893
:103CF000041BECDC0EB3A368AB4219DC61683846E8
:103D00000131FFF77BFF804628B90246BA210C4BF0
:103D10000C4800F04DFC226904F10C0102329200C3
:103D20000C3000F037FC21463846FFF7A5FF44462B
:103D300004EB850301355E6125612046BDE8F08115
:103D4000204B0008314B00080346B0F5803F3ABFD6
:103D5000030410200020B3F1807F3CBF1B02083019
:103D6000B3F1805F3CBF1B010430B3F1804F3CBF17
:103D70009B000230002B04DB5B0001D50130704753
:103D8000202070470368014613F007020BD0DA07C2
:103D900022D4980749BF5B089B0801200B605CBFD9
:103DA00002200B60704798B2A0B910201B0CDAB249
:103DB0000AB908301B0A1A0704BF1B0904309A0706
:103DC00004BF9B080230DA0702D45B0806D001303A
:103DD0000B6070471046EAE70020704720207047CC
:103DE00010B50C460121FFF709FF024628B940F241
:103DF0004511044B044800F0DBFB012344610361DF
:103E000010BD00BF204B0008314B00082DE9F04FDA
:103E1000D1F81080D2F810900E46C845144685B0EF
:103E200004DB4B460C46C14616469846A3686168BB
:103E300009EB0807BB42B8BF0131FFF7DFFE30B91D
:103E400002464FF4B1714A4B4A4800F0B1FB00F111
:103E500014052B46002205EB870B5B4522D306F1A8
:103E6000140101EB880304F1140C0CEB890C029390
:103E700004F1150363458CBF002301230093ACEBD1
:103E80000403153B9B080193029B03918B420CD8C2
:103E9000002F03DD5BF8043D002B67D0076105B000
:103EA000BDE8F08F43F8042BD7E7B1F800A0BAF1D2
:103EB000000F28D0A9464FF0000E04F1140858F85E
:103EC000042BD9F8003096B29BB20AFB0633D9F81E
:103ED0000060120C360C0AFB0266734406EB1346B4
:103EE0009BB243EA0643C4454FEA164E49F8043BE9
:103EF000E5D8009A019B002A4FEA830308BF0023FC
:103F00002B44C3F804E0039B0431B3F802E0BEF194
:103F1000000F29D02B68A94698464FF0000A04F1FB
:103F2000140632889BB20EFB02A202EB184243EA4F
:103F3000024349F8043B56F8043BD9F800804FEAA5
:103F4000134A1FFA88F30EFB0A33B44503EB1243FE
:103F50004FEA134AE5D8009E019A002E4FEA8202EA
:103F600008BF00222A44536004358DE7013F8FE7E4
:103F7000204B0008314B00082DE9F843174612F09A
:103F8000030280460D4607D0264C013A002354F820
:103F90002220FFF793FE0546BF103FD0D8F81C4003
:103FA00094B91020FFF778FD0446C8F81C0030B91A
:103FB000024640F2B3111C4B1C4800F0F9FA0023F2
:103FC000C0E901330360C360A66846B940F27121BD
:103FD0004046FFF705FF00230646A06003602C461D
:103FE0004FF0000907F001037F1053B12946324614
:103FF0004046FFF70BFF214605464046FFF73CFED3
:1040000067B1306838B9324631464046FFF7FEFEA8
:104010003060C0F8009006462C46E3E72846BDE82D
:10402000F88300BFEC4B0008A84A0008314B000899
:104030002DE9F84F0C46074691462669496806EB7C
:104040006216A3684FEA621A06F1010843450BDBCA
:104050003846FFF7D3FD054648B902464FF4EF71E5
:104060002A4B2B4800F0A4FA01315B00EEE7002355
:1040700000F114010A461846534539DB20692AEA43
:10408000EA7A01EB8A0104F1140319F01F098C4646
:1040900003EB800030D04FF0000EC9F1200AE34658
:1040A0001A680CF1040C02FA09F242EA0E02CBF88B
:1040B000002053F8042B984222FA0AFEEFD8031B83
:1040C000153B23F0030304F11502904238BF00238F
:1040D0001944C1F804E0BEF1000F00D1B0463846E3
:1040E0002146C5F81080FFF7C7FD2846BDE8F88FC8
:1040F00042F8040B0133BFE753F8041B0CF1040C26
:1041000098424CF8041CF7D8E8E700BF204B0008A1
:10411000314B000803690A6930B59B1A0ED114307F
:10412000143100EB820401EB820154F8045D51F874
:10413000042D954204D006D24FF0FF33184630BD0F
:10414000A042F2D3FAE70123F8E700002DE9F74F88
:104150008A460646114650461446FFF7DBFF051E09
:1041600012D129463046FFF749FD024628B940F2F0
:104170003721404B404800F01BFA0123C0E90435C9
:10418000104603B0BDE8F08FBCBF5346A246304690
:10419000DAF80410BABF1C4601250025FFF72EFDF2
:1041A000024618B940F24521324BE3E7C56000F101
:1041B0001405AB464FF0000CDAF8107026690AF1CE
:1041C000140904F1140E0AF1100309EB87080EEB31
:1041D00086060193019B5EF8040B53F804AF81B28D
:1041E00001931FFA8AF35B1A000C6344C0EB1A4078
:1041F00000EB23409BB243EA004376454FEA204C54
:104200004BF8043BE6D8331B153B153423F003036E
:10421000A64238BF0023E8184B441C1D2646043034
:10422000A5EB090546450ED308F10301091B21F052
:1042300003010133984538BF0021014451F8043D82
:10424000B3B117619CE7E24606EB050E56F8041B76
:104250001FFA81FCD4444FEA1149514409EB2C491F
:1042600089B241EA09414FEA294CCEF80010D9E75A
:10427000013FE3E7204B0008314B00082DE9734371
:10428000012190469946089EFFF7B8FC054630B9D3
:10429000024640F20F31234B234800F089F9C9F35D
:1042A0000A54C9F313030CB143F480130193B8F11A
:1042B000000324D068460093FFF764FD0099E0B145
:1042C000019AC0F1200302FA03F30B43C2406B6171
:1042D0000192019B002B0CBF01220222AB612A61DB
:1042E000ACB1A4F2334404443460C0F13500099BFE
:1042F0001860284602B0BDE870836961E9E701A84B
:10430000FFF740FD019B01226B612030E7E7A0F23F
:10431000324005EB820330601869FFF715FDC0EBF2
:104320004210E4E7204B0008314B0008B1F90C20A3
:10433000F8B5160705460C4651D44B68002B02DC35
:104340000B6C002B49DDE66A002E46D0002312F4E8
:1043500080522F682B6031D0626DA389590705D533
:104360006368D21A636B0BB1236CD21A0023284600
:10437000E66A216AB047421CB4F90C3006D12968BC
:104380001D2944D8264ACA40D60740D5002262607B
:104390002269D904226004D5421C01D12B6803B9DB
:1043A0006065616B2F60C1B104F14403994202D092
:1043B0002846FFF727FB002363630EE0012328460E
:1043C000216AB0470246501CC7D12B68002BC4D0CD
:1043D0001D2B01D0162B19D12F6000201CE00F6976
:1043E000002FFAD0930718BF00230E6808BF4B694F
:1043F000F61B0F608B60002EEFDD33463A462846F1
:10440000216AD4F828C0E047002806DCA3894FF0D1
:10441000FF3043F04003A381F8BD0744361AEAE7B2
:104420000100402038B50B6905460C4613B91D46FE
:10443000284638BD18B1036A0BB9FEF78BFAB4F9F8
:104440000C30002BF3D0626ED00704D4990502D44F
:10445000A06DFEF75EFC28462146FFF767FF636EFE
:104460000546DA07E4D4A3899B05E1D4A06DFEF7E5
:1044700051FCDDE770B50E46B1F90E101446002967
:104480001D4696B00ADAB28912F0800213D14FF4B9
:10449000806100202A60216016B070BD6A4600F07D
:1044A00047F80028EFDB019A02F47042A2F50053AE
:1044B0005A425A41EBE700224021EAE78B8973B563
:1044C0009E0705460C4607D504F147032360236188
:1044D0000123636102B070BD01AB6A46FFF7CAFFFA
:1044E000009E28463146FFF701FBB4F90C3038B97D
:1044F0009A05EFD423F0030343F00203A381E3E71B
:1045000043F08003A381019BC4E904062060002BD3
:10451000E0D02846B4F90E1000F01CF80028D9D0DD
:10452000A38923F0030343F00103A381D2E7000032
:1045300038B50023064C054608461146236000F0B6
:1045400029FA431C02D1236803B12B6038BD00BF98
:104550000C04002038B50023054C054608462360AE
:1045600000F028FA431C02D1236803B12B6038BD48
:104570000C04002038B50023054C0546084623608E
:1045800000F038FA431C02D1236803B12B6038BD18
:104590000C0400200A44914200F1FF3300D170471F
:1045A00010B511F8014B914203F8014FF9D110BD3C
:1045B0001FB51D46094B06461B68D86852B1084C0A
:1045C0003346CDE9014200912A46064900F042F8FF
:1045D00000F052F8044C2246F2E700BF1800002019
:1045E0009D4B0008AA4B0008D84B000870B5A1FBF2
:1045F000026535B93146FFF779FA044628B92046F5
:1046000070BD0C2300240360F9E732462946FEF70B
:1046100009FBF4E782B001B901A942B14BB11378AB
:104620000B601278101E18BF012002B070471046B0
:10463000FBE76FF00100F8E749B1FF2A8BBF8A233F
:10464000012003600A7088BF4FF0FF3070470846B2
:10465000704700000EB403B5014603AB054853F89C
:10466000042B0068019300F035F802B05DF804EB0C
:1046700003B0704718000020062008B500F066F966
:10468000012000F0C5F9936810B4013B002B936042
:1046900007DA9469A34201DB0A2902D110BCFEF7B4
:1046A0002FBA1368581C10601970084610BC704768
:1046B000F8B506460F461446D518AC4201D1002085
:1046C00007E03A46304614F8011BFFF7DCFF431CB5
:1046D000F3D1F8BD2DE9F04706460D4614461F46B6
:1046E0009CB018B1036A0BB9FEF734F96B6ED907A9
:1046F00005D4AB899A0502D4A86DFEF70AFBAB89F5
:104700001B0701D52B699BB929463046FEF736FABF
:1047100070B16B6EDE0704D54FF0FF301CB0BDE802
:10472000F087AB899C05F7D4A86DFEF7F3FAF3E7A1
:104730000023099320238DF8293030234FF00108FE
:104740000397694F8DF82A3023461A7899461AB193
:10475000252A03F10103F8D1B9EB040A0BD0534623
:10476000224629463046FFF7A3FF013000F0A38020
:10477000099A5244099299F80030002B00F09B806E
:1047800000224FF0FF33CDE9053209F1010904920F
:1047900007928DF853201A924C46052214F8011BFB
:1047A0005148FEF7B8FA049AD0B9D00644BF202386
:1047B0008DF85330110744BF2B238DF8533099F8EF
:1047C00000302A2B13D04B4600204FF00A0C0799DB
:1047D0001A781C46303A092A4AD9A8B1079113E041
:1047E000C01B08FA00F01043A1460490D4E7039BD5
:1047F000191D1B680391002BBBBF5B4242F00202F4
:1048000007930793B8BF049223782E2B0AD16378BD
:104810002A2B32D1039B02341A1D1B68039243EAF0
:10482000E3730593DFF8C490032248462178FEF72E
:1048300072FA38B14022049BA0EB09008240134376
:10484000013404932178062229488DF82810FEF7B8
:1048500062FA00283ED0274818BB039B073323F099
:10486000070308330393099B0134034409936BE75F
:1048700001200CFB01210133AAE700234FF00A0CB1
:1048800018460593611C0A780C46303A092A03D968
:10489000002BC7D00590C5E701230CFB0020013198
:1048A000F1E703AB00932A463046134B04A9FDF70A
:1048B000F9FB431CD7D16B6ED90705D4AB899A0598
:1048C00002D4A86DFEF726FAAB895B063FF524AF4C
:1048D000099823E703AB00932A463046064B04A908
:1048E000FDF780FEE5E700BFD94B0008DF4B00086D
:1048F000E34B0008A5200008B14600081F2938B581
:1049000005460C4604D9162303604FF0FF3038BD2E
:10491000C26B12B152F821304BB9284600F030F882
:10492000224601462846BDE8384000F017B8012B62
:104930000AD0591C03D1162303600120E7E70021A8
:10494000204642F8241098470020E0E7024B014639
:104950001868FFF7D3BF00BF1800002038B5002348
:10496000064C054608461146236000F02BF8431C10
:1049700002D1236803B12B6038BD00BF0C040020B6
:1049800000F010B85822024B4FF0FF301A60704709
:104990000C0400205822024B4FF0FF301A60704781
:1049A0000C0400205822024B4FF0FF301A60704771
:1049B0000C0400205822024B00201A60704700BFF0
:1049C0000C0400205822024B4FF0FF301A60704751
:1049D0000C0400205822024B4FF0FF301A60704741
:1049E0000C0400205822024B4FF0FF301A60704731
:1049F0000C040020044A05491368002B08BF0B462D
:104A000018441060184670471C0400202004002041
:104A1000FEE700BFF8B500BFF8BC08BC9E46704773
:0C4A2000F8B500BFF8BC08BC9E4670470B
:104A3000000000000102030400000000000000006C
:104A40000102030406070809010202030405060720
:104A500008090A0B0C0D0E0F101068656C6C6F20A6
:104A6000776F726C640D00494E4600696E66004EA9
:104A7000414E006E616E00300030313233343536D5
:104A800037383941424344454600303132333435BA
:104A90003637383961626364656600496E66696EEF
:104AA000697479004E614E005245454E54206D6147
:104AB0006C6C6F6320737563636565646564002F58
:104AC000746D702F6A656E6B696E732D6535396113
:104AD000613638372F776F726B73706163652F475C
:104AE0004E552D746F6F6C636861696E2F61726DC6
:104AF0002D31352F7372632F6E65776C69622D636C
:104B0000796777696E2F6E65776C69622F6C696261
:104B1000632F7374646C69622F64746F612E630019
:104B200042616C6C6F632073756363656564656473
:104B3000002F746D702F6A656E6B696E732D65350D
:104B40003961613638372F776F726B7370616365C7
:104B50002F474E552D746F6F6C636861696E2F61BE
:104B6000726D2D31352F7372632F6E65776C6962AC
:104B70002D63796777696E2F6E65776C69622F6C2C
:104B80006962632F7374646C69622F6D7072656300
:104B90002E63004300504F534958002E002C2066CE
:104BA000756E6374696F6E3A200061737365727419
:104BB000696F6E2022257322206661696C65643AF4
:104BC0002066696C6520222573222C206C696E6535
:104BD000202564257325730A00232D302B200068BF
:104BE0006C4C006566674546470000000500000004
:104BF000190000007D0000000080E03779C34143C8
:104C0000176E05B5B5B89346F5F93FE9034F384D32
:104C1000321D30F94877825A3CBF737FDD4F1575DE
:104C2000000000000000F03F0000000000002440F1
:104C300000000000000059400000000000408F40CC
:104C4000000000000088C34000000000006AF84037
:104C50000000000080842E4100000000D01263415B
:104C60000000000084D797410000000065CDCD41D1
:104C7000000000205FA00242000000E876483742B2
:104C8000000000A2941A6D42000040E59C30A24250
:104C90000000901EC4BCD64200003426F56B0C43C5
:104CA0000080E03779C3414300A0D885573476436C
:104CB00000C84E676DC1AB43003D9160E458E143CD
:104CC000408CB5781DAF154450EFE2D6E41A4B4442
:104CD00092D54D06CFF08044F64AE1C7022DB54487
:104CE000B49DD9794378EA44002020202020202058
:104CF000202028282828282020202020202020208C
:104D0000202020202020202020881010101010109B
:104D100010101010101010101004040404040404E7
:104D20000404041010101010101041414141414181
:104D30000101010101010101010101010101010163
:104D40000101010110101010101042424242424273
:104D50000202020202020202020202020202020233
:104D600002020202101010102000000000000000DB
:104D70000000000000000000000000000000000033
:104D80000000000000000000000000000000000023
:104D90000000000000000000000000000000000013
:104DA0000000000000000000000000000000000003
:104DB00000000000000000000000000000000000F3
:104DC00000000000000000000000000000000000E3
:104DD00000000000000000000000000000000000D3
:0C4DE000000000000000000000000000C7
:084DEC0024B3FF7F0100000069
:044DF400B10A0008F8
:044DF800890A00081C
:104DFC0000127A000100000010000000000000000A
:104E0C0003000000D00200201C0000200000000065
:104E1C00D002002038030020A00300200000000076
:104E2C000000000000000000000000000000000076
:104E3C000000000000000000000000000000000066
:104E4C000000000000000000000000000000000056
:104E5C000000000000000000430000000000000003
:104E6C000000000000000000000000000000000036
:104E7C0000000000000000004300000000000000E3
:104E8C000000000000000000000000000000000016
:104E9C0000000000000000004300000000000000C3
:104EAC0000000000000000000000000000000000F6
:104EBC0000000000000000004300000000000000A3
:104ECC0000000000000000000000000000000000D6
:104EDC000000000000000000430000000000000083
:104EEC0000000000000000000000000000000000B6
:104EFC000000000000000000430000000000000063
:104F0C000000000000000000000000000000000095
:104F1C000000000000000000430000000000000042
:104F2C000000000000000000000000000000000075
:104F3C00000000000000000039460008154600087B
:104F4C0000000000E84C00089B4B0008D84B000800
:104F5C00D84B0008D84B0008D84B0008D84B000899
:104F6C00D84B0008D84B0008D84B0008D84B000889
:104F7C00FFFFFFFFFFFFFFFFFFFFFFFFFFFF000033
:104F8C0001004153434949000000000000000000AB
:104F9C000000000000000000000000000000000005
:104FAC00000041534349490000000000000000008C
:104FBC0000000000000000000000000000000000E5
:044FCC0000000000E1
:0400000508000AD510
:00000001FF
